:020000040000fa
:080000000002040000000000f2
:020000040000fa
:10000800920900009209000092090000920900007c
:10001800920900009209000092090000920900006c
:10002800920900009209000092090000820600006f
:10003800920900009209000092090000fc6d00007e
:10004800386e000092090000920900009209000031
:1000580092090000fa0300009209000092090000ca
:1000680092090000920900009209000082f2000043
:10007800920900009209000092090000920900000c
:10008800920900009209000092090000746e0000b5
:10009800b06e000092090000920900009209000069
:1000a80092090000920900009209000092090000dc
:1000b80092090000920900009209000092090000cc
:1000c80092090000920900009209000092090000bc
:1000d80092090000920900009209000092090000ac
:1000e800920900009209000092090000920900009c
:1000f800920900009209000092090000920900008c
:10010800920900009209000092090000920900007b
:10011800920900009209000092090000920900006b
:10012800920900009209000092090000920900005b
:10013800920900009209000092090000920900004b
:10014800920900009209000092090000920900003b
:10015800920900009209000092090000920900002b
:10016800920900009209000092090000920900001b
:10017800920900009209000092090000920900000b
:1001880092090000920900009209000092090000fb
:1001980092090000920900009209000092090000eb
:1001a80092090000920900009209000092090000db
:1001b80092090000920900009209000092090000cb
:1001c80092090000920900009209000092090000bb
:1001d80092090000920900009209000092090000ab
:1001e800920900009209000092090000920900009b
:0801f8009209000092090000c9
:020000040000fa
:10020800920900009209000092090000920900007a
:10021800920900009209000092090000920900006a
:10022800920900009209000092090000820600006d
:10023800920900009209000092090000fc6d00007c
:10024800386e00009209000092090000920900002f
:1002580092090000fa0300009209000092090000c8
:1002680092090000920900009209000082f2000041
:10027800920900009209000092090000920900000a
:10028800920900009209000092090000746e0000b3
:10029800b06e000092090000920900009209000067
:1002a80092090000920900009209000092090000da
:1002b80092090000920900009209000092090000ca
:1002c80092090000920900009209000092090000ba
:1002d80092090000920900009209000092090000aa
:1002e800920900009209000092090000920900009a
:1002f800920900009209000092090000920900008a
:100308009209000092090000920900009209000079
:100318009209000092090000920900009209000069
:100328009209000092090000920900009209000059
:100338009209000092090000920900009209000049
:100348009209000092090000920900009209000039
:100358009209000092090000920900009209000029
:100368009209000092090000920900009209000019
:100378009209000092090000920900009209000009
:1003880092090000920900009209000092090000f9
:1003980092090000920900009209000092090000e9
:1003a80092090000920900009209000092090000d9
:1003b80092090000920900009209000092090000c9
:1003c80092090000920900009209000092090000b9
:1003d80092090000920900009209000092090000a9
:1003e8009209000092090000920900009209000099
:0803f8009209000092090000c7
:020000040000fa
:100400002fe823000e7c24000e018800000000006d
:10041000000020000000e000020032000001200087
:10042000200288000c00070020f7260001002000b1
:1004300011000700000020000000e0000200320070
:100440000000020000000000f89c02000000000014
:100450000040da000000fe004440a90040e1210015
:100460000000e0000300320020002000a00188000e
:100470004440a80000000600910188008000780038
:100480000000eb0015003700e280400032a0b4000d
:100490009101ba00e280400032a0b4009102ba009b
:1004a000e280400032a0b4000002eb00472bde00e7
:1004b000f507b200602ce10004003a000059eb009f
:1004c0008301e900fdff3e00040037006128e100e0
:1004d000010032000082eb00040007001101ba00a5
:1004e0000200e000e8ff3a00000006003159ba00bf
:1004f0008301e9000c0032002159ba008301e900b0
:10050000080032000400e00003003a00e2804000ee
:1005100032a0b400f5ff370011d9ba008301e90019
:10052000faff3a008100e800e180400032a0b40008
:1005300000000600dcc6040000000000c2c6040083
:1005400000000000d0c6040000000000ca520400f1
:1005500000000000e25004000000000030520400df
:1005600000000000c056040000000000f852040023
:1005700001000000ac5004000100000042500400e3
:1005800001000000e6b10400000000008ab1040090
:1005900000000000c26204000000000080a204000d
:1005a0000000000024a2040000000000104304002a
:1005b000010000001a49040001000000c64a0400be
:1005c00001000000764e0400010000003c9a040087
:1005d00000000000a098040000000000da99040068
:1005e000000000009c85040000000000307704003b
:1005f00000000000167704000000000024770400cb
:1006000000000000d47804000000000058ca040074
:100610000000000062d2040000000000beaf040031
:1006200000000000d6e004000000000098af0400c5
:1006300000000000b4af040000000000a6af0400fa
:1006400000000000b0e0040000000000cce0040066
:1006500000000000bee004000000000032ca0400f8
:10066000000000004eca04000000000040ca040060
:1006700000000000c8c2040000000000aa5d0400e1
:1006800000000000b8b704000000000092e604007b
:100690000000000024dc040000000000c857040033
:1006a00001000000b4d3040000000000c0d3040027
:1006b00000000000fad40400000000006ecf040027
:1006c000000000007acf04000000000010d10400f8
:1006d0000000000042cd0400000000004ecd0400e8
:1006e00000000000ecce04000000000070d7040001
:1006f000000000007cd704000000000076d8040051
:100700000000000096dc040000000000a2dc0400f1
:1007100000000000b4dd040000000000428e040070
:10072000000000000ecc0400000000004ee50400b4
:10073000000000001807040000000000a8080400e2
:100740000000000016090400000000000c0904006d
:100750000000000038090400000000006e070400db
:10076000000000003e07040000000000fc08040038
:100770000000000004090400000000004409040017
:10078000000000002209040000000000cc08040062
:1007900000000000d8ba040000000000dcbc040027
:1007a000000000004cbd04000000000042bd040039
:1007b0000000000070bd04000000000038bb040011
:1007c00000000000faba04000000000032bd04007e
:1007d000000000003abd0400000000007cbd0400e1
:1007e0000000000058bd04000000000002bd04002d
:1007f000000000003600f800809fbe00829fbe000f
:10080000849fbe00869fbe003400f80020002000b8
:10081000a00188000000fa00c4da8000e00f520056
:1008200002003200c4da80000400010085a0a900a3
:100830000080fa003400f9004f03be004f02be00f2
:100840004f01be004f00be003600f9000040060018
:100850000e00fa00000f7800110798002207980098
:1008600033079800440798005507980066079800da
:1008700021e3a9001e027800cfa2de000400be0022
:10088000320c0200000000000002be000401be00a5
:1008900000002000010024004e0d020000000000b6
:1008a0000002be000400be00780b02000000000041
:1008b0000002be00040278000482ea006419880085
:1008c0001e027800044278007f4262000482fb002e
:1008d0007f0262004822dd0046198000f50f2e00dd
:1008e0008502630005027200441988001e02780028
:1008f000044278007f4262000482fb007f026200b3
:100900004619800005fe2f00850263000502720073
:10091000441988001e027800cfa2de000400be0049
:10092000320c0200000000000002be000401be0004
:1009300000002000010024004e0d02000000000015
:100940000002be000400be00fc0b0200000000001c
:100950000002be0004027800841988001e02900084
:1009600004427800674262000482fb004d22dd00f1
:1009700016198000f5ff2100850263000502720050
:10098000141988002e029000044278000442e90005
:100990000400780024e3b700041980000450a0008c
:1009a0000460a0000470a000041988003e029000ba
:1009b000044278007f4262000482fb007f026200f2
:1009c0004822dd0026198000f50f2e008502630005
:1009d00005027200241988004e029000044278003b
:1009e000634262000482fb00630262004822dd0071
:1009f00006198000f5cf2f00850263000502720002
:100a00000419880085a0a9005e02900004427800c5
:100a1000614262000482fb00610262004d22dd003f
:100a2000a6048000f5ff2d00850263000502720018
:100a3000a4048800540580000440a0000450a000d5
:100a40000460a000540588006e029000c4da88009b
:100a50003eba9700ceba9700d4da8800e5da88006b
:100a60001eba9700aeba9700f4da880005db88005a
:100a700021e3a8000080fa00000006000800fa0048
:100a8000889fbe00f6da800007db8000d4da8000a1
:100a9000e5da80000401be000600be00120a020072
:100aa000000000000002be00048fbe000418800099
:100ab000050020000400be00380c02000000000009
:100ac0000002be001e01be000400be00e60c0200d3
:100ad000000000000002be000404be007410860086
:100ae000cfa2de000400be00320c020000000000b5
:100af0000002be000401be000800be00ce0a0200d3
:100b0000000000000002be0024079800350798008e
:100b10002e029000be0290000400be004f04be00f2
:100b20000080fa00000006000000fa0004188000af
:100b3000040078000080fa00000006000000fa00bf
:100b40002003a9002023a800000000000419800051
:100b500062026200e00f5200fcff3a000080fa00df
:100b6000000006000000fa0004198000044278002a
:100b7000614262000482fb00040078000080fa00f9
:100b8000000006000c00fa0040079800510798008a
:100b90001400200005002000048fbe006022b80071
:100ba0002407980035079800160037004e02900081
:100bb000cfa2de001e03900004b3b9000603780044
:100bc0009e03780005b8b90080037800070343004e
:100bd0009e037800040278000722b8000503430052
:100be00086027800048fbe00048fbe002e029000a3
:100bf000be02900061024200e0824a002407980091
:100c0000350798005e0290006123b9002e02900023
:100c1000be029000840f5300858f5b00e3ff3c0011
:100c20001e02be000400be000080fa0000000600a4
:100c30000200fa00889fbe00000f7800641980004f
:100c40006124b8009e00780020002000cdff07003e
:100c50000002be000482ea008582ea00840f54008c
:100c6000858f5c002400320021e3a9009e007800fb
:100c700020002000c3ff07000002be00040278002d
:100c80000482ea00641988001e0278000442780099
:100c90007f4262000482fb007f0262004822dd0086
:100ca00046198000f50f2e008502630005027200d0
:100cb000441988001e027800044278007f426200d6
:100cc0000482fb007f0262004619800005fe2f00af
:100cd0008502630005027200441988009e007800b6
:100ce00020002000a7ff07000002be0004027800d9
:100cf0008419880021e3a8004f04be000080fa0098
:100d0000000006003600f800809fbe00829fbe00f3
:100d1000849fbe00869fbe003400f80020002000a3
:100d2000a00188000000fa0044e08000e00f5200bb
:100d30000200320044e08000040001008460a90049
:100d40000080fa003400f9004f03be004f02be00dd
:100d50004f01be004f00be003600f9000040060003
:100d60000600fa00000f780011079800220798008b
:100d700005e1a9001e029000044278006142620071
:100d80000482fb00610262004622dd00260880002a
:100d9000f5fb2f008502630005027200240888001d
:100da0001e02780004427800614262000482fb0067
:100db000610262000402420026088000d5ff2f0075
:100dc0008502630005027200240888002e0290004c
:100dd00004427800614262000482fb00610262000a
:100de0004222dd0026088000b5ff2f008502630047
:100df0000502720024088800240880000440a10035
:100e00000450a100240888000002eb0044e08800a0
:100e10009460a8002405800004c0a00004d0a000b5
:100e200004e0a100240588000080fa00000006000c
:100e30000000fa0005e1a90004c1a9000421a900ed
:100e40000441a900240880000440a1000450a1002e
:100e5000240888000002eb0044e088009460a800a9
:100e60002405800004c0a00004d0a00004e0a1007c
:100e7000240588000080fa00000006000200fa0045
:100e8000004f78001e427800e04f520002003d0003
:100e90000042eb00044f78001e427800e34f5200fe
:100ea0000200340034c0b300044f78001e427800c2
:100eb000634262000482fb00630262004422dd00a0
:100ec00026088000f5fc2f008502630005027200f1
:100ed000240888000080fa00000006001200fa00d2
:100ee00070079800010f9800ab0007000002be00d9
:100ef000340798004507980005e1a9003e019000dd
:100f0000ce01900000242400f1002000520b0200ca
:100f1000000000000002be0054079800650798001a
:100f20005e029000ee029000e00f5200e08f5a0047
:100f3000080032005e019000ee0190007e009000fb
:100f40008e089000520b0200000000000002be005c
:100f5000048fbe0004002000150020001e03be0008
:100f6000840f5300858f5b0019003c005e029000e7
:100f7000ee029000e00f5200e08f5a0014003200a1
:100f80000002eb00040888001e0278000402e90059
:100f900014088800ee0290001e02780004aab9002e
:100fa000040378009e0290005e02900004aab9003b
:100fb0000402780004034300de0290001e02780061
:100fc000042ab80005034300860278005d0037005c
:100fd0000002eb0024079800400037002e0290002a
:100fe0000442780004407800a4ff07006a0007006c
:100ff0000002be0034079800450798003e019000ab
:10100000ce01900000242400f1002000520b0200c9
:10101000000000000002be00540798006507980019
:101020005e029000ee029000e00f5200e08f5a0046
:10103000080032005e019000ee0190007e009000fa
:101040008e089000520b0200000000000002be005b
:10105000048fbe0004002000150020001e03be0007
:10106000840f5300858f5b0019003c005e029000e6
:10107000ee029000e00f5200e08f5a0014003200a0
:101080000002eb00040888001e0278000402e90058
:1010900014088800ee0290001e02780004aab9002d
:1010a000040378009e0290005e02900004aab9003a
:1010b0000402780004034300de0290001e02780060
:1010c000042ab80005034300860278001d0037009b
:1010d0002e0290000402e800240798002e029000df
:1010e000e30f5200bdff340030c0b30063ff0700c0
:1010f000290007000002be00340798004507980049
:101100003e019000ce01900000242400f100200058
:10111000520b0200000000000002be0054079800bd
:10112000650798000082eb00140888000002eb00bd
:10113000040888005e029000ee029000c022dd00ec
:10114000040020000400be000080fa000000060039
:101150000400fa00008fbe001e00be005fff070003
:101160009460a9002c000700230007000000000085
:101170002404800068026200e00f5200fcff32008d
:101180008460a90020000700230007009460a800e5
:101190000080fa00000006000400fa0068c30200a4
:1011a000000000000003be00240880004422de008e
:1011b000634262000482fb00451d2c0004024200d1
:1011c000048242001402780004024200cfa2de0032
:1011d0000401be000600be00520b02000000000029
:1011e0000002be00048fbe001e02be000400be004e
:1011f0000080fa00000006000000fa0005e1a800e7
:101200000080fa00000006000000fa0005e1a900d5
:101210000080fa00000006000000fa000002eb0067
:10122000040888000080fa00000006000000fa00b0
:1012300004088000050020000400be000080fa00c1
:10124000000006000000fa009460a9000000000001
:101250002404800068026200e00f5200fcff3200ac
:101260008460a9009460a8000080fa0000000600d5
:101270000200fa00000f78001e02780044e08800a7
:101280000080fa00000006000400fa00c2ff070018
:101290000002be000401be0000242400f100200072
:1012a000520b0200000000000002be00048fbe00ce
:1012b00004088000050020001e03780005b3b90073
:1012c000060378009e03900004b8b90080037800fc
:1012d00007034300040278009e0278000522b8004c
:1012e00005034300860278000400be000080fa0077
:1012f000000006000000fa00240880004422de00fe
:10130000634262000482fb00451d2c00040242007f
:101310000482420014027800040078000080fa0081
:10132000000006000040da000000fe000800fa009d
:101330001007980021079800320798000002eb0080
:10134000040f78001e0290000402e900e10f520031
:101350000e003e0008003700ae0290001e0278002a
:1013600004824200144278001e0fe8000440780016
:10137000baf10200000000009e0278003e029000d8
:10138000848f5200f4ff3900000000003e029000fc
:10139000040078000080fa0000000600889fbe006c
:1013a0008004780000f48000e00f500004003a0050
:1013b0000e0007000084eb00e00f5000080035002d
:1013c00008f48000e08f540005003200090044005a
:1013d00006000700e00f500001003d000084eb0014
:1013e000080078004f04be0000000600e00f500027
:1013f00004003a0024e8210004f488000002780088
:10140000060037000082eb0025e82300850f50001e
:1014100002003e0000f488000002eb0004007800a7
:101420000000060003f0a200889fbe008a9fbe0055
:101430008c1f78004d010700540133006450e10017
:101440004f0032006420e1005200320003826c0041
:1014500007003b000905d0000306d000820f5400ae
:101460000c065d000200390002003200890178009c
:10147000030678008582550004003d000003fd004e
:101480008103fd008502ea008b854200840f720013
:1014900002003b0060001000e08018006011b800fe
:1014a0000005eb007a28e1000a0039000600780008
:1014b000c75ddd00f707b200878075002d0037009b
:1014c000828171000a017800610560008180d1008d
:1014d0000080d3008502e900f9ff3b0006044000cc
:1014e0008784480002003b0060041400e0841c0074
:1014f0000988a300070032008a817100828171008f
:10150000610164008904d1000884d3008b05e800e0
:10151000170037000978a30013003a000b00e00021
:10152000130034008b05e9000804440089844c0052
:101530000a4474000978a3000d003a000b00e00093
:10154000070034008b05e9000804440089844c003e
:1015500001003a000b0020000978a300f7ff3200d9
:101560000001eb0002003700828171000a0178005f
:10157000c30007000cf0a70001f0a0000c01370029
:101580006420e10002003a00838f6c000c013300fc
:101590000801be000200be0005013700889fbe00a2
:1015a0008a9fbe008c1f7800f0000700f700330010
:1015b00003866c006450e1002e0032006420e100dc
:1015c000330032006150e1002f0032006120e10061
:1015d0003100320085855500eb07b000090020007e
:1015e00008042000050037000804440089844c00ea
:1015f0000a0031000603430087834b0000015300bb
:1016000081815b00f8ff33000203be000800a000e8
:101610000804440089844c00f6ff3900c639dd0017
:101620008301730001003200130020008904d100ff
:101630000884d3000998a300050032000800a70021
:101640000300a0008904d1000884d3008b05e800c2
:101650008904d1000884d3000001eb000281d2008c
:101660008700070001f0a1000cf0a70001f0a00026
:10167000cf0037006420e100d10032000801be0035
:101680000200be00f7ff37006120e100cc0032000d
:101690006000b800f3ff37000000200001f82700c9
:1016a000f0ff3700839f68000100e00002003d006a
:1016b00060001000e08018000300e00002003d0020
:1016c00060011100e08119000c0207004f00e000ea
:1016d00002003b0060001000e080180000000600df
:1016e00014002000bf033700f4ff2f00bd033700b4
:1016f0000001be00880007000470a70003f0a100ed
:101700006509b100160032000d0035006828e100bf
:1017100006003500f0ff2f00f1ff27000300e00076
:1017200013003b00010028000000050000004000fd
:10173000818048008502e900fcff3a00080037007c
:10174000f88f420002003c008000eb000000050022
:101750008100d1000080d3008502e800fcff3a0040
:101760000300e00002003b0060001000e080180071
:10177000000006000003be00670007006011b8000b
:101780000470a70007f0a10007f8a30017003a00b3
:101790006509b1000d0032000d0035008602200001
:1017a0000628e10003003500030028006000b800af
:1017b000020005000000400081804800020149004d
:1017c000838149008502e900faff3a000000060023
:1017d000f88f4200050034008100d1000080d30062
:1017e0008502e800fcff3a00000006006011b80026
:1017f0008000eb00000005000001be00460007006d
:101800000470a70003f0a10003f8a30013003a003e
:101810006509b10010003200090035006928e100b7
:101820000200350001002800000005000000400013
:10183000818048008502e900fcff3a0000000600b4
:10184000f88f4200050035008100d1000080d300f0
:101850008502e800fcff3a00000006008000eb0073
:10186000000005004f89de00820178007803370010
:101870006011b800860337000400200059033700c8
:1018800081002000618055000b003d000b0020000e
:1018900061fe2f000100e1001d0034008281710013
:1018a000610164008904d1000884d3000000e800cd
:1018b000faff3a007100200061006400030070002c
:1018c000020060000900320061044400e0844c0022
:1018d0000988a500050032008b05e8006808e100d2
:1018e00002003a008904d1000884d300f20f2000de
:1018f0000258e10005003d00c75ddd00f907b200b8
:101900008980750008007800000006000bf82700a9
:101910008b00780000000500c70ade00f107b20066
:10192000f50fb20008003200e1cf420002003200a1
:101930000170a00024000500810f7000010032003a
:101940000408050044000500810f700002003a0001
:10195000140005008502e9000000400081c0480035
:10196000fcff3b000170a000240005000004be0045
:10197000e9ff07000003be000405be000200be0030
:10198000e5ff0700844f7500000006000200be005e
:101990006450e100050036006420e10002003600da
:1019a0000968a30001003a000800be000160a00021
:1019b0004f0678004f05be004f04be000000060031
:1019c000f0ff2f00f1ff2700f9ff3700889fbe00ce
:1019d0008a9fbe008c1f7800e4ff0700ebff3300f6
:1019e00003866c006450e100240032006420e100b2
:1019f000270032006150e100220032006120e10046
:101a0000210032008b854200eb07b1000134b800a1
:101a1000003ab8000804420089844a00013ab8003c
:101a20000030b8008880400009014a0004003300fb
:101a30000000400081804800020149008b05e90058
:101a4000c909dd008301700001003200130020008d
:101a5000c814de004814dd004709de001200b200a1
:101a6000c808de000884700085ff070001f0a100af
:101a70000cf0a70001f0a000cdff37006120e100cd
:101a8000cfff32000801be000200be00f7ff3700a2
:101a90006150e100fcff3a00c9ff37000c00fa007a
:101aa000889fbe008a9fbe008c9fbe00afff0700cc
:101ab0000206be00840578000200be00020020007d
:101ac000a102070005003a008b02b30012002000bb
:101ad0009d02070001003a00f8856d000c01be0070
:101ae000c60007000800be009b0032000b08a300e0
:101af0009e003a000df0a7000be0a00009f0a7003f
:101b00000bf0a00009f0a1000801be00bb00070017
:101b10000bf0a6009500320001003c000bd0a000a5
:101b20008acf7500b20033006000b8006250e10057
:101b300099003900a1003e000b28a300a2003a0042
:101b40000bf8a300060032000b58a300a7003200d8
:101b50000801be00a90007000800be009400320082
:101b60000800be00090207000004be000505780059
:101b70000bf0a7000b30a6000bf0a1005b0798004c
:101b8000324f200053f32300d5fe070005003d002f
:101b90000800be0012002000ec0207000004be0096
:101ba0000a05e9004a0798006150b9002dff0700b7
:101bb000008fbe000c01be0084ff0700ccfe0700b2
:101bc000300798000100e00002003d0060001000b6
:101bd000e0801800f2ff2700820f5000e08f5800cd
:101be00064003e000c00be00c1fe07002007980004
:101bf000f2072000820f5000e08f580005003c00e3
:101c000012f82f00f3ff2f00820f5000838f58002f
:101c100009003d000a00e0000300320001003c0022
:101c20000201ea00020578006000b8002007980071
:101c30003a079800190037003e0090006100b90093
:101c400008ff0700809fbe000c00be004109dd00b8
:101c50004811de007208b1003b0207000005be001b
:101c60001e01be0059ff07004f01be00edfd070039
:101c7000809fbe000c00be000a01be00e9fd070007
:101c80001e01be0051ff07004f01be00e6fd070028
:101c90008221270013f323004cff07000005be003c
:101ca0002e0090006100b900eefe070001f0a200d6
:101cb0000c01be00dcfd07000006be000800be00ef
:101cc000c40207000c01be0040ff07000a01be006d
:101cd000d5fd0700809fbe004a0007002e0590003a
:101ce0000af0a7000a05ea00050037000800be0058
:101cf0000801be0035ff07000004be000c00be0056
:101d00000801be000a00a70030ff07000006be0061
:101d10000a05d100f5ff3a005e01900002e0a6003e
:101d2000030037000001be00360007001bfe07005d
:101d30000004be004f00be00a10107000801be0064
:101d400022ff07003e01900080020700de059000a0
:101d50000bf0a70001f0a2004f06be004f05be0029
:101d60004f04be000080fa000000060025000700b6
:101d7000f9ff3700270007006000b8000bd0a7006c
:101d80000bc0a0000be0a7000bc0a2000bc0a70077
:101d900001f82700f0ff37000df8a3000200320021
:101da0001e000700190007000bf8a300eaff32002d
:101db0000b30a70001f0a200e7ff37000df8a300e9
:101dc000f9ff3a00f7ff37000801be000b000700db
:101dd000e6ff320001003c000df0a2006000b800f8
:101de0000df0a70009000700dbff37000b0007001c
:101df000f1ff2700f0ff2f00d7ff37000100070099
:101e000037fe370001f823000000050001f8270025
:101e10000000050020022000010037001002200011
:101e200090e0880000000600889fbe008a9fbe00e8
:101e30008c1f78000004be00b7fe07000478a300e2
:101e400026003a006120e1002500320009f8a300d5
:101e500025003a006420e10021003200f507b100be
:101e60000508a30002003200000040008180480005
:101e70006044b80003102000020020000000400071
:101e8000818048000805440089854c000a0541000e
:101e90008b8549000a0550008b85580003003300ec
:101ea0000a00be0002047400838474008301d10020
:101eb0000281d300830f7100f0ff3a008904d10042
:101ec0000884d3006001490082017800c1adde00c2
:101ed000fb07b0006afe0700b5fe37000960a000ee
:101ee0000800be00b2fe37001202200092e0880017
:101ef000f0ff2f00f1ff2700adfe37006022b80091
:101f0000060220000000d0008180d2000482d200ae
:101f10008582d2000000a0000202520083825a0093
:101f2000030031000202420083824a000000a10047
:101f30000603e900f3ff3a0000000600889fbe0098
:101f40008a9fbe003004be002005be000404440089
:101f500085844c0006054d0087854d000898be001d
:101f60000a90be000440e10005c8e10006d0e1008f
:101f700007d8e10002003100680040001008e800c6
:101f80004f05be004f04be00000006001000fa001e
:101f9000889fbe008a9fbe00110020000605be007b
:101fa0000404be003002be002003be00c4b79f0080
:101fb000d5b79f00e6b79f00f7b79f000802520011
:101fc00089825a000a035b008b835b0084bf9f00f9
:101fd00095bf9f00a6bf9f00b7bf9f000498be009b
:101fe0000698be004fb29700dfb297006fb397001c
:101ff000ffb397000820e10009a8e1000ab0e10062
:102000000bb8e100010039008000eb004f05be0075
:10201000108810004f04be000080fa000000060087
:102020001400fa00889fbe008a9fbe008c9fbe00ed
:102030000006eb003e000700ccb79f00bcb79f0036
:10204000acb79f009cb79f008cb79f000605be00f1
:102050000404be000d0420004fb39700bfb29700e8
:10206000860343002fb29700e00f530004003d00a9
:102070003d0007000f004000b0ff070003003700dd
:10208000390007000f004000c0ff0700cfb29700e3
:1020900095bf9f00e08f5200090035002b0007001c
:1020a00014002000050020006033b800000072001a
:1020b0008180720002017300838173001c0007009d
:1020c0000c06e8008d0f5600e3ff3a001fba970098
:1020d000e00f520005003d000802be000a03be00ea
:1020e00000fe2f000f00400094ff07004faa97004a
:1020f000e00f520008003a000fb497009fb4970019
:102100002fb59700bfb59700d8b79f00e9b79f00dc
:10211000fab79f008bbf9f000c0007004f06be0060
:102120004f05be004f04be000080fa00000006000c
:10213000010007000000060090b79f00a1b79f00b4
:10214000b2b79f00c3b79f00000006000100070060
:10215000000006001fb09700afb097003fb1970096
:10216000cfb19700000006004f2bde00f9ff0700fb
:1021700086837300858242004f23de00a7b79f004d
:10218000868272000402420095b79f00ffaa970062
:102190004f2bde00858242000602720084b79f004a
:1021a0006faa97004f23de0004024200868272006d
:1021b000f5af9f004f18de0000027200e5ff070038
:1021c000e4af9f0000004000818048000201490008
:1021d000838149000802be000a03be00d6ff070043
:1021e00000fe2f0000000600881f78001800200065
:1021f000881f78008aff07008f87e9004f04780066
:1022000000000600801feb0085ff07008f87e900b4
:1022100000000600889fbe008a9fbe00e00f5000ad
:10222000e08f5800e00f5900e08f59000c003d008e
:102230006044b8006055b8000000540081805c0024
:1022400002015d0083815d00180020001500070079
:1022500008003d00180007000004eb0005003700ef
:102260000004eb000f00070002003d001200070011
:1022700018002000dcff0700e00f540006003200c9
:102280006022b8006033b8000000520081805a001c
:1022900002015b0083815b004f05be004f04be005e
:1022a00000000600e00f5200e08f5a00e00f5b00d4
:1022b000e08f5b00000006006044b8006055b80085
:1022c0000402540085825c0006035d0087835d0084
:1022d00000000600889fbe008a9fbe008c1f780009
:1022e000e00f5000e08f5800e00f5900e08f5900d8
:1022f0000d003d006044b8006055b8001c0020008f
:102300000000540081805c0002015d0083815d005b
:102310000820e10009a8e1000ab0e1000bb8e100e3
:102320000d003d00080037000006eb00e00f5200f2
:10233000e08f5a00e00f5b00e08f5b0006003d007d
:102340006044b8006055b8000402540085825c0007
:1023500006035d0087835d00aaff0700e00f5600bb
:10236000060032006022b8006033b800000052005e
:1023700081805a0002015b0083815b004f06780078
:102380004f05be004f04be00000006000003be0063
:1023900061fd07006220e100020032000600be007d
:1023a00005000500e507b100f107b20004f02300c5
:1023b0008480700007f0a70001f0a0002400050051
:1023c000889fbe008a9fbe008c9fbe000004be0096
:1023d00051fd07000800be006420e10048003e00f7
:1023e0005500320072212700132b2400befc070089
:1023f00047003c000800be00c2ec2800e32c2c0083
:10240000b7fc0700470035000800be0001f0a1003e
:102410000200200003382300b1fc07004300350010
:102420000800be00b2a32a0083fb230067fd07005b
:102430000200200003f0230001f0a70003f0a00039
:10244000f9fb0700aafc07000005be0005fd070018
:1024500001f0a2000006be000200280013f32300d2
:102460005afd07000801be00effb0700809fbe0079
:102470000c00be0032082800e3952b0053fd070036
:102480004f01be00e8fb07000006be000001be00d1
:102490004efd0700809fbe004241250083b8230007
:1024a0004afd07000200200003e82300defb0700ce
:1024b0000c01be0045fd07000006be004f00be0037
:1024c000f2f92b00c3d4230040fd070002002000d6
:1024d00003f02300d4fb07000c01be00d1fb070072
:1024e0000001be000c00be002cfc07000200200012
:1024f00003f02300ccfb07006101450093000700b7
:102500004f06be004f05be004f04be00000006008f
:1025100001f82700000020002202200092e088003d
:10252000f7ff37006000b800fbff370001f8230019
:1025300000002000f2ff370009f8a300f0ff32008e
:102540006000b800eeff3700889fbe008a9fbe0083
:102550000003be00f0fc0700850578008281520070
:10256000020020006220e10004003a00f307b100fd
:10257000040035007718e100040035000600be00b5
:10258000140037006000b8000f003700f50f20007e
:10259000faff2f008502d1000a85d3008301e900ec
:1025a000fcff3b008184620000046500890f740019
:1025b000f2ff32008582ea000a85ea008184620027
:1025c00000046500aefc070007f0a70001f0a000c2
:1025d0000081eb000200e0004f05be004f04be008a
:1025e00000000600889fbe008a9fbe00841f7800fe
:1025f000defc07004f00780011003300f0ff2f00d1
:10260000838f6c0006003b00040565000a00a700ec
:102610000800370009f0a60010002000080037006d
:10262000820f5400838f5c000300390010002000eb
:1026300001003e000000200009f0a7000000ea00b1
:102640004f05be004f04be000000e0000000060081
:10265000881f7800030478000300e00007003d00b5
:1026600060001000e080180060011900e08119008e
:1026700002003b0001f02d000300370004000700ba
:1026800008f0a70001f0a0004f0478000000060049
:10269000889fbe008a9fbe00008270000402710005
:1026a00004827100260032000004be000200be0059
:1026b0006011b8006b092000950220000182cf0054
:1026c0000a0039000541b1000082cf00070039003f
:1026d0000541b1000982cf00040039000541b10075
:1026e0000882cf00010039000541b10005425200c7
:1026f000120032000a003b00828171006101640017
:102700008100d1000080d3008984d3000884d300e5
:102710008b05e8000442e800f7ff3a0007003700a5
:102720000804440089844c0000004800818048006f
:102730008b05e9000442e900f9ff3a0050fc07006c
:102740004f05be004f04be00000006000003be009f
:1027500071fc07006220e100020032000600be00aa
:102760000000060085024100e30f20000328e1007d
:1027700005003c00a3fe2f000328e10007003d00f8
:102780000500200001003700f50f20002002200086
:1027900090e088006000b8000800370013002000b7
:1027a0008381520005003d008100d1000080d300ec
:1027b0008301e800fcff3a0005002000c72add0085
:1027c000f107b2008580700007f0a70001f0a000bb
:1027d00000000600889fbe008a9fbe008c9fbe003e
:1027e000eafe0700850478000005be006420e100d1
:1027f00049003e006220e10003003200090035007c
:102800000bf8a300440032000bf8a30008003200cc
:102810001002200090e08800f0ff2f00f1ff270059
:102820003d00370001f82f00000020003a0037007b
:102830003d000700fbfa07000006be000a00be00cc
:10284000324f200053f32300a7fb0700060034009b
:102850000c00be0034000700f2fa07000006be00bc
:102860000a00be00020037008904e9000c00be0027
:102870002d00070055fc07002b000700eafa0700af
:102880000001be000c00be0044fb07000005be00b6
:102890000001be004dfc07000006be00a2f32300ad
:1028a000430d2c00e0fa0700809fbe000c00be0024
:1028b000d2e32700d3f02b0044fc07004f01be00f9
:1028c00036fb07000006be000a01be003ffc070001
:1028d0000a01be00d4fa07000006be006148b90034
:1028e000e0fb07000005be0032082800e3952b003e
:1028f00036fc07000c01be00cbfa07000006be0044
:102900000a00be000200280013f323002ffc07007a
:102910000c01be00c4fa07004f06be004f05be0002
:102920004f04be000000060003f023000200050073
:1029300044e62100e487470025f38000889fbe001d
:102940008a9fbe008c9fbe008e1f7800e08f5200d1
:102950000b003a0024029800e402420064f388006d
:1029600025f3880075f38800a44290000504a000b8
:1029700025429800e44290000504a00065429800ba
:102980006704400024e82100250020004244de00c6
:1029900029e823004244dd008484540005074400f4
:1029a000110009008504d8005ce8230062f3800070
:1029b0000406560080bf9f000e0747000003eb008f
:1029c000e405440008064600020037001600200017
:1029d0000d01780022429000610262000200320084
:1029e0000a0037001509780092027800254290000d
:1029f00061026200fbff320008024100848f520036
:102a000002003900e00f54003f003d0092067800bc
:102a10000d00a100828f5600edff3e00e10f530034
:102a2000eaff3a000fba9700840f54000200360004
:102a3000890f540010003900614ab900b0ff2f001f
:102a4000010020006143b800040250008582580054
:102a5000840f5300858f5b00020035000b05780062
:102a600006003700110009000986d8000982b90064
:102a700004057800010037000e0578000a00780090
:102a800046fa0700e10f400005003a000b05780008
:102a90000b00780041fa0700e10f40002b003200e4
:102aa00074f38000000a780074f38000640342002d
:102ab000a4429000860f5000020032000504a000de
:102ac000010037000504a100254298006405550067
:102ad00044e621000a0540000a0878007af38800dd
:102ae000040d780075f380000003eb002542900090
:102af0000404a000a4429800204290000404a10015
:102b000024409800b2ff370064f38800848f52009d
:102b1000070036001403be008042eb0086f38800f5
:102b200097f38800120a780064f380002542980029
:102b30002242900067f380000404a0000709780097
:102b40002441980064004100010037000000eb00c0
:102b50004f0778004f06be004f05be004f04be0071
:102b60004f00b10000000600e00f500008003200e6
:102b70006400500064f38000840f500001003100b5
:102b800060f38800204290000404a10024409800d3
:102b900000000600889fbe00000478008a9fbe00e7
:102ba00081047800e08f540005003a00e00f5400e3
:102bb0003200320008007800ebff070030003700d9
:102bc000e00f540004003a000900780058ff0700a5
:102bd000800478002a0037006402540094057800cd
:102be00068fa970061026200020032000800780073
:102bf000ddff0700090078004dff07008004780022
:102c0000e08f54001e003200888f54001b003200f9
:102c100069bd97008885550009055500c2ddde00b5
:102c200042d5de000a0178008b0f55000100360006
:102c30000b0178004211dd0088007800090078005f
:102c400013000700888f54000d0031004255dd004d
:102c50000a854400880f5500090036000804550015
:102c600084f3800095f3800042c4de004244dd001e
:102c700008844400048cbe000100370088047800fa
:102c8000090078004f05be004f04be00000006009a
:102c90000002780002003700315a78000201e90092
:102ca000e00f5100fcff3a000000060015c0b30021
:102cb0000100200044e72100b0f38800c1f3880040
:102cc000054a78000000060044e721008042eb003e
:102cd00094cf120002003a0010002000f3ff07001a
:102ce000b0f38000c1f38000d2e62400631c24000e
:102cf000ab090700940323000500200000024200f6
:102d000081824a00b4f38800c5f38800050078008a
:102d100000f0a100000006000002780084027800a4
:102d2000050278000043eb00b44f1300fbff3a00ac
:102d300031427800845a7800e04f5200fcff3a009c
:102d40000000060000027800b1427800055a7800c1
:102d5000e0cf5200fcff3a000000060000027800bd
:102d60008042eb00b4cf1200fdff3a000080ea0081
:102d700000004200000006000c00fa00889fbe0020
:102d8000f4ff270000047800d4bf9f008004eb000c
:102d900088bf9f0099bf9f00a8bf9f00240c200000
:102da00078815700b4bf9f00cfb097007080570064
:102db000c40007000fba9700094a78000fba9700bd
:102dc000080052004f04be000080fa000000060018
:102dd000d4c6b3000800fa00889fbe000084fb0040
:102de0008a9fbe00844f50003400360049cc210039
:102df0004b062000110009000b84d800720040002f
:102e00004300dd0000804400810578006022b800a6
:102e10000600200007fe2300aa0020005001be008b
:102e20004000be00e70807000002be0011000900d4
:102e30008a85d80080057800e9854500c35ddd00fe
:102e40008b8544000203be0084bf9f0095bf9f0096
:102e5000a6bf9f00b7bf9f003b02be002b03be0072
:102e60000fb897009fb897002fb99700bfb9970088
:102e7000d40807000002be00110009000a84d8002f
:102e8000010478004344dd00888444000203be004e
:102e900084bf9f0095bf9f00a6bf9f00b7bf9f0044
:102ea0003902be002903be000fb897009fb89700f3
:102eb0002fb99700bfb997001d003700ea4f5000a7
:102ec00013003600aa00200049cc2100110009009f
:102ed0000a84d80001057800690440004355dd00ec
:102ee0004344dd00088444008a8444006022b80022
:102ef0000600200007fe23003800be002801be00a7
:102f0000b00807003902be002903be0008003700e0
:102f100044cc21004344dd00080442006022b80094
:102f20000600200007fe23003800be002801be0076
:102f3000a40807004f05be004f04be000080fa0041
:102f400000000600d4c6b3000800fa00889fbe0047
:102f50008a9fbe00e04f500022003d000040ea0082
:102f60000004fb00844f50000a0034004406200097
:102f7000a9002000110009000404d8004acc210057
:102f8000110009008900d800e9004000c308dd00f5
:102f900020003700ea4f50000f003400a40020004a
:102fa000110009000404d80044cc2100690040004d
:102fb0004300dd0000004200430cdd000802420037
:102fc0005001be004000be005403be004402be00db
:102fd0007c080700370037004344dd0044cc210063
:102fe000310037000004fb00844f50002300340000
:102ff00044062000a9002000110009000404d800a4
:103000004ac12100110009008900d800e9004000f0
:10301000c308dd00810045008b0920008a8545003a
:103020003102be002103be003b00be002b01be00ea
:10303000640807000002be00110009000904d8005e
:10304000010478004344dd00080545000203be008a
:1030500084bf9f0095bf9f00a6bf9f00b7bf9f0082
:103060003a02be002a03be000fb897009fb897002f
:103070002fb99700bfb99700d5ff3700ea4f50002e
:1030800007003400a4002000110009000404d80047
:1030900044c12100690040004300dd00c5ff370046
:1030a0004344dd0044c12100080442003800be0052
:1030b0002801be004f05be004f04be000080fa008c
:1030c00000000600ef05b000889fbe008a9fbe008a
:1030d0008c9fbe00000678008e1f78000007eb0072
:1030e000e19f9f0082af9f006000b8006011b800b0
:1030f00080a79f0091a79f00a2a79f00b3a79f0052
:10310000db053700ef98970054c2b3008100e80058
:10311000e19f9f00844f500006003a0001037800b1
:103120008006eb0007c3b30000c2b300b1c2b30016
:103130000e0037003c0290000404b200040032008c
:103140001c027800004a7800040ee80005003700f1
:103150000000fb008c007800d1050700e10f400063
:10316000c30532000e07e800c105370006027800eb
:10317000d2c2b300b642780082cf520009003200ba
:1031800005003c0080cf52000800320081cf520081
:103190000c003a000700370087cf520009003a00c0
:1031a000060037000d30a000f0ff37000d00a00032
:1031b000eeff37000d10a000ecff37000d20a0003f
:1031c000eaff370062836600010032000d00a100b3
:1031d00068836600010032000d20a1000503fb009a
:1031e0000603b100e90f53000e003e008001eb0022
:1031f00084027800830378003502fb006a3bb90043
:103200000403b100860342001503fb0005027800a9
:103210000603b100e90f5300f7ff360097b79f0090
:103220000a0037000003eb0096b79f00a6c2b30068
:1032300086cf520005003a008fab97000402e800e9
:103240004700780087af9f0090b79f00e5c2b300aa
:1032500094cf120018003a000de0a000e4c2520022
:10326000d4cf1200040032008000eb00840278000a
:1032700081037800090037000fa997000402e800d5
:10328000c201780082af9f00d3af9f00c6c6b300d3
:103290000d0037006a38b90080034300050278004a
:1032a0003503fb000603b100e90f5300f9ff3600b8
:1032b000d7af9f00f5ff37008002eb000dc0a000e4
:1032c000d5af9f00f1ff370084037800b742780044
:1032d0000702780086cf52002d003200e79f9f0042
:1032e000c4c6b30084cf520014003c0068425200b0
:1032f00084cf52002400320009003c006c4252008e
:1033000084cf52002f0032006b42420084cf520023
:103310009a003200e0cf52005a053200b800370060
:1033200064c6b30084cf52002000320063424200e2
:1033300084cf5200b2003a001300370034c7b30004
:1033400084cf52002300320007003c006442520048
:1033500084cf5200180032000442e80084cf5200ab
:10336000a7003a001700370054c7b30084cf5200bb
:10337000a80032006342420084cf5200a0003a000d
:10338000e5579f0011003700e5579f00a300370065
:10339000f0836600050120000100320005002800ce
:1033a0008d82720085067800c7ff3700e5579f00c1
:1033b0000da0a00099003700e5579f000d60a00008
:1033c00096003700e5579f000d50a0000d70a0003b
:1033d000920037000fab9700e5579f004602780038
:1033e00086af9f0004047800e00f520001003a000d
:1033f00068d92100880278000002eb000100370044
:103400000402e80065437a00e04f5300fcff3a00f5
:1034100084047800dfab9700e08f53000300320094
:10342000898f530001003100870478000002eb000f
:103430001fb09700890f50000100360009025000ac
:10344000e8866600ddaf9f008d007800e08f5000b9
:103450002d003a008406780004c2b3001000370043
:10346000bc0290000504b200040032009c02780007
:10347000844a7800050ee8000700370084bf9f00eb
:103480008c00780000022000050507000fba9700a5
:10349000e10f4000010032000e07e8008d06e90050
:1034a000e08f5600eeff3a000082eb001600370076
:1034b000bc0290000504b2000900320088027800c6
:1034c0009c03780035437800864b7800050478002b
:1034d000070ee800e04f53000a003a000a003700e8
:1034e000880278008c0078003500fb0084bf9f00c4
:1034f00005047800ea0407000fba9700e10f4000c6
:10350000010032000e07e800890278008504e90016
:10351000e08f5200e6ff3a005fa99700e00f5100ec
:10352000d30432008406780004c2b30010003700d0
:10353000bc0290000504b200040032009c02780036
:10354000844a7800050ee8000700370084bf9f001a
:103550008c00780000022000d10407000fba970009
:10356000e10f4000010032000e07e8008d06e9007f
:10357000e08f5600eeff3a00bd0437008fa9970098
:10358000f08266004302780083af9f000400780059
:10359000cf80de00010178008201780090af9f00ab
:1035a000a1af9f00b2af9f00c3af9f004800de00f5
:1035b000480add0000007200e0579f00e08f5200d3
:1035c00009003200e04f500007003200e14f400098
:1035d00005003200afd29700f0579f00855f9f0033
:1035e00029002000030037002fd397001900200086
:1035f000f6579f0078f92f000f04440085ff37002d
:10360000e5579f0068f92f000f04440019002000bf
:1036100080ff3700e5579f000d0cb30004702000b9
:103620000482660065023200040021000482660004
:103630000200320067002000d7af9f007082660052
:10364000090032000faa97004401be004400be00ea
:1036500084af9f0090af9f00a1af9f00b2af9f00cb
:10366000c3af9f000a0037008faa97004500be0035
:1036700085af9f003b0607000002be000203be00ac
:1036800094af9f00a5af9f00b6af9f00c7af9f004c
:103690006022b8006033b8001fa89700afa8970059
:1036a0003fa99700cfa9970080050700e00f5000c1
:1036b0000a003d001fa89700afa897003fa99700f8
:1036c000cfa9970003f0a20090af9f00a1af9f0089
:1036d000b2af9f00c3af9f003d00b3000002eb00fc
:1036e0001fa89700afa897003fa99700cfa9970000
:1036f000d48f9f006022b8006033b800cf05070068
:10370000e00f500034003200a4f92f000f024200f5
:103710001fa89700afa897003fa99700cfa99700cf
:103720008b0607005f889700a40020000000e900d6
:103730006300b900110009000400d800d08f9f0079
:10374000e00f500002003d000000e900d08f9f0014
:103750005f8c97000840ea00fafd07001faa970057
:10376000afaa97003fab9700cfab97009506070035
:103770000002be000203be0084a79f0095a79f0021
:10378000a6a79f00b7a79f006022b80006002000f0
:1037900007ff230045050700e00f500002003d0031
:1037a0000804e9000b0037006022b8000600200082
:1037b000470224000fa097009fa097002fa1970019
:1037c000bfa197003e050700e00f50000200350042
:1037d0000804e800d88f9f00dfaa9700f88f5200f6
:1037e0000f003c000540780079fd07000002be0094
:1037f0000203be001fa89700afa897003fa997003b
:10380000cfa99700ac0407000002be000203be006f
:1038100094af9f00a5af9f00b6af9f00c7af9f00ba
:103820005f8c9700e90f540015003c006022b8003f
:103830006033b8001fa89700afa897003fa9970072
:10384000cfa997007d050700e00f5000320032003d
:103850001fa89700afa897003fa99700cfa997008e
:10386000df050700e00f5000e08f5800e00f59001f
:10387000e08f590028003a00e10f54002600340080
:103880000400200005002e00b6e0220017012400ed
:103890000fa097009fa097002fa19700bfa19700ae
:1038a00002050700e00f500002003d0073045400c1
:1038b0000100370072045400d88f9f002f589700e2
:1038c000a0fd07000002be000203be001fa8970073
:1038d000afa897003fa99700cfa9970084a79f00a2
:1038e00095a79f00a6a79f00b7a79f00f904070010
:1038f000bb0507000205be000004be006000b80062
:103900006011b80090af9f00a1af9f00b2af9f00c1
:10391000c3af9f00170037001fa89700afa89700fc
:103920003fa99700cfa99700ad0507000205be008b
:103930000004be00db0507000002be000203be005b
:103940001fa89700afa897003fa99700cfa997009d
:10395000910607000002be000203be0094af9f0064
:10396000a5af9f00b6af9f00c7af9f000002eb005e
:10397000d48f9f0061da210010c0b3000800370027
:103980003102be003103be000440e10005c8e10081
:1039900006d0e10007d8e100030039000040e8004c
:1039a000f44f5000f6ff3a009fb29700e0579f0097
:1039b0005f8a97005fab9700048252000000fb0013
:1039c000060252000000520090b79f00e00f530023
:1039d000020032000000e90090b79f006382660099
:1039e000030032009fb397008703e90097b79f0059
:1039f000648266004500320062826600e1826600f1
:103a0000e00f5200110032003c0290000404b200aa
:103a1000080032001c037800b4c2b300e08f5200eb
:103a20000100320004c2e800044b7800060ee800f2
:103a300015003700b0022000e08f52000100320074
:103a40000080e8008c0078000c003700e08f520006
:103a5000200032003c0290000404b2000500320055
:103a60009c02780004c2b300844a7800050ee80086
:103a7000050037008c007800000220008803070052
:103a8000e10f4000130032000e07e800110037007c
:103a90003c0290000404b200040032001c027800d2
:103aa000054a7800040ee80007003700f5b79f00cc
:103ab0008c0078000003200079030700ffb2970014
:103ac000e10f4000010032000e07e8008904e90020
:103ad00006003700c8a79f00d9a79f00eaa79f004c
:103ae000fba79f009fb4970005c3b300e08f54006d
:103af000e7ff3c0099b79f004fa49700dfa4970011
:103b00006fa59700ffa597006e00370068826600da
:103b10001f003a00110037003c0290000404b2007c
:103b2000040032001c027800054a7800040ee80008
:103b300007003700f5b79f008c00780000022000d6
:103b400057030700ffb29700e10f40000100320069
:103b50000e07e8008904e90006003700c8a79f00a7
:103b6000d9a79f00eaa79f00fba79f009fb49700db
:103b700005c2b300e08f5400e7ff3c0099b79f00f7
:103b80004fa49700dfa497006fa59700ffa59700ab
:103b900062826600e1826600e00f5200110032008e
:103ba0003c0290000404b200080032001c037800bc
:103bb000b4c2b300e08f52000100320004c2e8003a
:103bc000044b7800060ee8003d003700b0022000ec
:103bd000e08f5200010032000080e8008c00780085
:103be00034003700e08f5200360032003c02900073
:103bf0000404b200050032009c02780004c2b30045
:103c0000844a7800050ee8002d0037008c0078000b
:103c100000022000270037003c0290008502fb00d4
:103c20000404b20013003200e2d92100c32add00ef
:103c3000850241009c0078005503be004502be008d
:103c4000c1a79f000800be000a01be0066f9070078
:103c5000a4002000050020006033b80069f90700c7
:103c60004fa2970005c3b300054a4000040ee800c8
:103c700013003700e6d92100c32add008502430086
:103c80000800be000a01be005503be004502be008a
:103c900055f90700a4002000050020006033b8009b
:103ca00058f907008c00780004032000000242004d
:103cb00004007800fa020700e10f40000100320022
:103cc0000e07e8006f5297008442e900e5579f0015
:103cd000e04f5200d0ff3a00110037003c02900044
:103ce0000404b200040032001c027800084a780084
:103cf000040ee800050037008c0078000003200067
:103d0000e7020700e10f4000010032000e07e80063
:103d10005f8a97000402e900d48f9f0001003700fa
:103d200008c3b3005f8a9700e00f5200ebff3c002e
:103d3000dfab9700f28f53000300340024c1b300bf
:103d4000e4579f00020037002fd89700e0579f00ec
:103d50006f529700dfa897008402fb008582500015
:103d6000c5a79f00e04f52000e0032003c029000b9
:103d70000404b200050032001c027800e5c2b30062
:103d8000054a7800040ee800050037008c00780032
:103d9000e0022000c2020700e10f400001003200f3
:103da0000e07e8006f50970066fc07000002be0097
:103db0000203be001fa89700afa897003fa9970075
:103dc000cfa99700ff0407008504070035003700de
:103dd0003c0290008502fb000404b2001300320094
:103de000e3d92100c32add00858241001c0178004f
:103df0005503be004502be00d2af9f000800be00c2
:103e00000a01be00f8f80700a40020000500200009
:103e10006033b800fbf807005faa970005c3b30042
:103e2000054a4000040ee80013003700e6d92100df
:103e3000c32add00850243000800be000a01be005f
:103e40005503be004502be00e7f80700a4002000ad
:103e5000050020006033b800eaf807008c00780005
:103e60000403200000024200040078008c020700d6
:103e7000e10f4000010032000e07e800ef53970009
:103e8000e0d921000702fb004322dd0004024000cc
:103e90000800be000a01be005403be004402be007a
:103ea000d8f807006f5297000205be000004be005c
:103eb0008442e900e5579f00e04f5200c4ff3a00fa
:103ec00011003700bc0290000504b200040032006b
:103ed0009c027800844a7800050ee800070037004d
:103ee00084bf9f008c007800000320006c02070054
:103ef0000fba9700e10f4000010032000e07e80002
:103f00008904e90006003700cfa49700d0af9f00d6
:103f1000e1af9f00f2af9f0083b79f0004c3b300df
:103f2000e08f5400e7ff3a005fac9700efac9700da
:103f30007fad97008fb59700e88666004c0232008f
:103f40009fb09700e08f5000490234000802be0085
:103f50000a03be000dc2b300810478003c0090004b
:103f60000004b200040032001c0078000d48780004
:103f7000000ee8000d00370084bf9f00f5b79f00da
:103f8000d6b79f00e7b79f008c00780000022000a2
:103f9000430207000fba9700ffb297005fb3970084
:103fa000efb39700e10f4000010032000e07e80078
:103fb0008904e900e9ff3a002d0237008d027800fc
:103fc000050cb2002a003a00e08f560005003d00c3
:103fd0000fa997004205be004204be0082af9f00b9
:103fe00016003700708266000e0032000fab97009b
:103ff0004602be00c4979f00d5979f0086af9f00e2
:10400000160290004fa2de00e4979f00f4979f00f5
:104010004f949700df9497006f959700ff95970056
:10402000060037000fa897004004780080af9f007b
:10403000cfc4de00090578008a057800e00f54003f
:10404000e08f5c00e00f5d00e08f5d0023003d002d
:104050006022b8006033b8003d00b300080452008d
:1040600089845a000a055b008b855b001b003700c2
:10407000e08f560005003d008fa897004105be0067
:104080004104be0081af9f0014003700f08266003b
:104090000c0032008faa97004501be00a4979f0034
:1040a00082979f0093979f00b4979f0085af9f00d2
:1040b0000f9497009f9497002f959700bf959700b6
:1040c000060037008fab97004704780087af9f004a
:1040d000090020000a0020000b0020005fa89700c4
:1040e000e00f500009003a0011002000d1af9f00fe
:1040f000e00f5400e08f5c00e00f5d00e08f5d009a
:10410000020032000001eb00d2af9f008d01780069
:1041100004042000030cb20093af9f00848f510071
:104120002c00320003003c00e08f510008003200f8
:104130003c003700040820009faa9700848f52009b
:1041400010003200040c2000848f520035003a0029
:1041500065da210014c0b3003500be003501be0091
:104160000040e10001c8e10002d0e10003d8e10015
:104170002b0039000442e800f44f5200f6ff3a00e9
:104180002700370014c0b300000120000100200008
:104190006011b8000040e10001c8e10002d0e10078
:1041a00003d8e1001e003900460020000000d000c6
:1041b0008180d2000281d2008381d2000603e9000f
:1041c000faff3a000442e800f04f5200f1ff3a00d3
:1041d0001300370014c0b30080002000010020004d
:1041e0006011b8000040e10001c8e10002d0e10028
:1041f00003d8e1000a003900370020000000d00099
:104200008180d2000281d2008381d2008703e9003d
:10421000faff3a000442e800f54f5200f1ff3a007d
:10422000e4579f006f509700dfa897000002fb0043
:10423000810f520002003d00e1579f00040037004b
:104240005fa99700840f510001003d00d4af9f008b
:104250009fb19700e08f5100040032006382660036
:10426000020032008301e90093b79f00040024009c
:1042700004826600090032001fb29700dfaa97008f
:10428000850f5200030034000502520094b79f00ce
:10429000020037000003eb0096b79f00ef53970032
:1042a0000000eb000702fb00c0a79f009fb0970033
:1042b000848f50000200340004825000c4a79f0085
:1042c0006482660045003200e28266006182660018
:1042d000e08f520011003200bc0290000504b200d1
:1042e000080032009c027800b6c2b300e00f520012
:1042f0000100320006c3e800864a7800050ee80097
:1043000015003700b0022000e00f5200010032001b
:104310000080e8008c0078000c003700e00f5200ad
:104320000e0032003c0290000404b200050032008e
:104330001c02780005c2b300054a7800040ee800ac
:10434000050037008c0078000002200054010700af
:10435000e10f4000010032000e07e8004fa1970076
:10436000e00f51006300320098b79f00a9b79f008b
:10437000bab79f00cbb79f00cfa4970004c3b30088
:10438000bc0290000504b200040032009c027800d8
:10439000844a7800050ee8000700370084bf9f00bc
:1043a0008c007800000320003d0107000fba970041
:1043b000e10f4000010032000e07e8008904e90027
:1043c000efff3a00c9a79f001fb49700afb4970052
:1043d0003fb59700cfb5970046003700cfa09700b4
:1043e000e08f50001e003200688266001c003a0018
:1043f00098b79f00a9b79f00bab79f00cbb79f009f
:10440000cfa4970004c2b300bc0290000504b20020
:10441000040032009c027800844a7800050ee8000f
:104420000700370084bf9f008c0078000002200046
:104430001b0107000fba9700e10f40000100320096
:104440000e07e8008904e900efff3a00c9a79f00c2
:104450001fb49700afb497003fb59700cfb5970052
:10446000e282660061826600e08f52001100320035
:10447000bc0290000504b200080032009c027800e3
:10448000b6c2b300e00f52000100320006c3e800dc
:10449000864a7800050ee80015003700b0022000bb
:1044a000e00f5200010032000080e8008c0078002c
:1044b0000c003700e00f52000e0032003c0290006a
:1044c0000404b200050032001c02780005c2b300eb
:1044d000054a7800040ee800050037008c007800db
:1044e00000022000ee000700e10f40000100320052
:1044f0000e07e800dfa89700e5d921000102e900d6
:1045000098b79f00a9b79f00bab79f00cbb79f008d
:104510004221dd006323b900929f9f004322dd000a
:104520008601780085024200839f9f00f59f9f00cf
:10453000708266008d027800f48f9f000502b20041
:10454000e58f9f00a3003700dfa897001fa9970001
:104550008100e90003042000d1af9f00830f5100c8
:104560007300320003003c00e00f510008003200ed
:104570007e003700040820009faa9700848f520015
:1045800056003200040c2000848f520077003a005d
:10459000e08f56001f003d007f9b97001fb09700e3
:1045a000afb097003fb19700cfb197003604be007f
:1045b0002605be000802be000a03be000af7070077
:1045c0000802be000a03be00e0579f000000fb0087
:1045d000cf80de00010178008201780076030700b9
:1045e0001fb29700afb297003fb39700cfb39700c9
:1045f0000002520081825a0002035b0083835b0049
:1046000094b79f00a5b79f00b6b79f00c7b79f009c
:104610002e003700ff8a9700e08f52002200320000
:104620007f9b97001fb29700afb297003604be0081
:104630002605be000400be0084bf9f00f5b79f00a2
:104640000801be002df607000801be00e0579f00dc
:104650000000fb00cf80de00510307000fba970077
:10466000ffb297000001520081815a000002eb0066
:10467000a29f9f00b39f9f00d49f9f008001eb00eb
:10468000c39f9f002f989700bf9897004f9997005e
:10469000df99970090b79f00a1b79f00b2b79f0026
:1046a000c3b79f0009003700ff9897001fb197001c
:1046b00011027800110009000481d800a400200034
:1046c000110009000480d800e1579f00ef519700c6
:1046d0000343b000e3579f002400370054d8210063
:1046e000ef8a9700e08f52000100320044d721008a
:1046f0001fb09700afb097003fb19700cfb19700c0
:104700001f9b97000603e900050033008301d100d9
:104710000281d3008180d3000080d300f9ff3700ed
:104720006f00600064407800e0579f000f00370082
:104730001fb29700afb297003fb39700cfb3970077
:104740000f9897000000e900050033008703d100af
:104750000683d3008582d3000482d300f9ff37009b
:10476000674262000443b000e4579f003c0290009f
:104770000404b200070032009c0278006f529700d8
:10478000844a7800050ee800e04f520007003a0026
:1047900007003700ef5097000100fb008c00780005
:1047a0003f000700e10f4000010032000e07e80063
:1047b0001f9997008f9997007f9a97006401510085
:1047c000e381510068025200929f9f00839f9f00e7
:1047d000f49f9f00dfaa9700e08f52005aff3a0033
:1047e0001fb49700afb497003fb59700cfb59700bf
:1047f000e88666001e0032004fa39700e00f5300ca
:104800001b0034000802be000a03be00cfa49700bc
:104810000dc2b3003c0090000004b200040032005e
:104820001c0078000d487800000ee8000d003700ed
:1048300084bf9f00f5b79f00d6b79f00e7b79f00e2
:104840008c00780000022000150007000fba9700c6
:10485000ffb297005fb39700efb39700e10f4000fe
:10486000010032000e07e8008904e900e9ff3a0080
:10487000ef9b970017407800e0579f00e04f5000f3
:1048800020fa3a000e0078004f0778004f06be006d
:104890004f05be004f04be00ef05b100000006004a
:1048a000889fbe00010478008084eb0038029000ed
:1048b000e20262003b00320004037800980290009c
:1048c0000620b20002003a00e08f520035003a00a4
:1048d0000490a0008004780034049800f90fb2001e
:1048e000e08f520002003a00a8029000050c780008
:1048f000ea8f540005003a000408b20003003a00b1
:1049000088007800d0002000e5ff07001802900022
:10491000d8029000850f52000b0032000402e8001c
:1049200015c0b3001404980018027800094a7800f2
:10493000040ce800a4e72100054a7800ea8f54003f
:1049400018003a0005003700094078008800780018
:10495000170007008004780012003700380290002a
:104960000410b2000f00320018019000a80090005f
:10497000480090006df2070018029000840f50006c
:1049800004003200380290000403b300340498009d
:104990008084eb000002eb001404980028029000d1
:1049a000040c7800090078004f04be0000000600e7
:1049b0000200fa00889fbe0001047800a0ff9f005b
:1049c00038029000840278000504b2000200320030
:1049d0000000fb0035003700e202620005003a00eb
:1049e0000403b30015049800340498000080eb0021
:1049f0002e003700d8049000e08f540006003a00e3
:104a000012002000e68057004800900047f207009f
:104a10001904980023003700a8029000e08f52008c
:104a200008003a00d5e721000430a00025049800d2
:104a3000050c7800340498002500200055049800e7
:104a40001504980018019000a800900048009000fc
:104a500036f20700280290008082eb0015049800cf
:104a6000affa9700054a7800040ce8002ffa970087
:104a7000ea4f52000b003a00380290000410b200d6
:104a80000800320018019000a80090004800900033
:104a900026f207000002eb00a80290001404980020
:104aa000050c78002ffa97000400fb004f04be00ad
:104ab0000080fa00000006002800fa00889fbe006f
:104ac0008a9fbe008c9fbe0007067800878669001b
:104ad0000c003b00030478008704780008f0a10074
:104ae00009f0a100840f5000858f5800860f5900ef
:104af000890f5c00030033000cf0a20001003a00b3
:104b00000cf0a100fe0007006400e1005f0032002d
:104b1000780147006408e100610032006c01470041
:104b2000748557003200be001201be003a04be0078
:104b30001a05be001e039000be0a900085035300b4
:104b400006003d000004fd008104fd000205fd009b
:104b50008305fd008703ea00050378000df8a30034
:104b60000400320060041400e0841c0060051d0095
:104b7000e0851d006022b8007d0320000d38e100b3
:104b80008006eb000b0039004433dd00f300b20077
:104b90008301730039003700848272000d027800af
:104ba000e10664008b85d1000a85d3008984d30097
:104bb0000884d3008703e900f7ff3b0008004000aa
:104bc000898048000a0149008b81490004003b00ac
:104bd00060001000e080180060011900e0811900f9
:104be0000358a300090032008d8272008482720093
:104bf000610260008301d1000281d3008180d30073
:104c00000080d3000603e8001b0037000348a30020
:104c100017003a000600e000170034000603e90020
:104c20000d00a300000048008180480002014900f7
:104c3000838149000348a3000f003a000600e0000a
:104c4000090034000603e9000000400081804800ac
:104c5000020149008381490001003a000003eb0092
:104c60000348a300f5ff32006022b80002003700bd
:104c700084827200618266007500070003f0a10063
:104c80000cf0a70003f0a000b1003700640147005a
:104c90006408e10002003a000df8a300a9003a0000
:104ca0003200be001201be00a90037008f1fd100e4
:104cb000ea0107008f87e9000000e000000006001d
:104cc000809feb00e50107008f87e9000000e0000e
:104cd000000006002800fa00889fbe008a9fbe00e0
:104ce0008c9fbe0003866b00850007006400e10016
:104cf000440032006408e1004a0032006100e10033
:104d0000460032006108e10049003200ec0647002d
:104d10006000b8003d02be003d03be00f4865700af
:104d20006011b8003d04be003d05be007d032000bb
:104d30000b0037000000a0008d06e90013003200d0
:104d40000402420085824a0006034b0087834b0021
:104d50000000400081804800020149008381490031
:104d60000802520089825a000a035b008b835b00b1
:104d7000f0ff3b000802420089824a000a034b0010
:104d80008b834b008d06e900edff3a0084827200b0
:104d900086827200f707b20087827200010032003b
:104da000150020001e0490003e0b900006035400e6
:104db000e63fb0000368a300070032000000a70030
:104dc0000500a0008301d1000281d3008180d300bf
:104dd0000080d3000603e8008301d1000281d300e4
:104de0008180d3000080d3000002eb000482d20057
:104df0001700070003f0a1000cf0a70003f0a000cb
:104e000053003700640247006408e1004d0032009f
:104e10003400be003401be00f6ff37006108e10037
:104e2000480032006011b8006000b800f1ff3700a0
:104e300003ff270002002000fbff3700801feb006c
:104e4000860107008f87e9000000e00000000600ef
:104e50001800200057002000080453000d003d00fa
:104e60000600200097fc2f000740e1001e003400e0
:104e700084827200610260008301d1000281d3004c
:104e80008180d3000080d3000804e800f8ff3a00d6
:104e900047002000610460000504740004046400fd
:104ea0000d00320061004000e080480060014900d0
:104eb000e081490003b8a500070032000603e800be
:104ec0006538e10004003a008301d1000281d3007b
:104ed0008180d3000080d300f87f20000830e100fb
:104ee00003003500080378006000b8006011b800c6
:104ef0004433dd00f300b2008301730000000600bc
:104f0000680447000294be000094be00fc04470001
:104f10008694be008494be000900780098010700c2
:104f2000080078009601070099007800814f700012
:104f30000b003b000800be00710107004f00b100ec
:104f400003003700f3ff2700f2ff2f006110b900c4
:104f50004f06be004f05be004f04be000080fa00a1
:104f600000000600810378006bf207000001be001c
:104f70006000b8000478a30013003a006220e1004a
:104f800015003e000d0039008301d1000281d300dd
:104f90008180d3008301d1000281d3008180d300be
:104fa0008301d1000281d3008180d3000538b00095
:104fb000c42add00f300b2008381720007f0a7006d
:104fc00003f0a00000000600f3ff2700f2ff2f000f
:104fd0006110b900fbff370003ff2700f7ff370020
:104fe0001400fa00889fbe008a9fbe008c9fbe00fe
:104ff0000004be000205be00680047000a90be0023
:105000000890be005e0107000070a7000bf0a10031
:105010000bf8a30020003a009e0990000e099000b2
:10502000fe0090006e0090009e029000344320002d
:1050300084825200c6ff32000a003c00b4fc2f00fc
:105040000428e100140034008301d1000281d30060
:105050008180d3000080d3008502e800faff3a0087
:10506000bbff3700b40020000428e10007003c002b
:10507000000040008180480002014900838149000e
:105080008502e900faff3a00b1ff3700030028006b
:1050900002002000010037006011b8006000b80075
:1050a000abff3700889fbe000082700004027100d1
:1050b000048271002400320036432000c500200025
:1050c0008383cf000a0039000541b1008283cf00fd
:1050d000070039000541b1008183cf000400390089
:1050e0000541b1008083cf00010039000541b100c6
:1050f00085c353006022b800120032000a003b0052
:1051000084827200610260008301d1000281d300b9
:105110008180d3000080d3000603e8008743e800c5
:10512000f7ff3a0007003700000040008180480088
:1051300002014900838149000603e9008743e90031
:10514000f9ff3a0042ff07004f04be0000000600ce
:105150001400fa00889fbe008a9fbe008c9fbe008c
:10516000040678000004be000205be006800470087
:105170000a90be000890be00010107006200e10035
:105180000800be000a01be00040020000b003a0027
:105190001e029000e43fb1006e009000fe009000ff
:1051a0000e0990009e099000f300b20005fe230056
:1051b000858171000bf0a70003f0a000040e7800b9
:1051c00063ff37002800fa00889fbe008a9fbe0058
:1051d0008c9fbe0003866b0049ff07000028a300d8
:1051e00064003a000128a30067003a000008a30009
:1051f00062003a000108a30065003a001e0090001a
:10520000be08900081064000ed3fb100f4805700d9
:10521000ee019000111ab8008e099000311bb80001
:105220009e099000311cb800511db800f48557004c
:1052300046000700fe0190003a0007008b85e80059
:105240003e0007008e09900040000700ee0190002c
:10525000340007008b85e800380007008e099000b5
:10526000400007009e0990001b18b8008904400008
:105270000a854800fe019000340007008b85e80095
:1052800038000700ee019000300007008e09900002
:105290001b18b800890440000a8548000a98a3003a
:1052a00008003a000402420085824a0006034b00cf
:1052b00087834b0008044c0089844c000a054d008c
:1052c0008d06e90084827200850273004c3add008d
:1052d000850272000100320015002000443ade0011
:1052e0001400b2004538de00cb45dd000b00700035
:1052f000c540de00cb4ddd008b8070004549de00ef
:10530000cb55dd000b017100c551de000d037800a7
:10531000cffe070003f0a1000cf0a70003f0a000ef
:105320000bff37001b18b8008502400006834800b9
:10533000e0834b0060044c00070037001b18b800e6
:105340000603400087834800faff37001b18b800a7
:105350008703400008844800e0844c0060054d004d
:10536000000006001b18b8000804400089844800ab
:10537000faff37000108a300f2fe3a005800be0011
:105380005801be00e3ff37000008a300edfe3a001d
:1053900009047800f9ff370007f0a200c6fd3700c6
:1053a000020ab900001bb9000200b80081004200e7
:1053b0008100430000000600889fbe008a9fbe0057
:1053c0008c1f78000006eb00e00f5000e08f5800c3
:1053d000e00f5900e08f590007003d006044b8001d
:1053e0006055b8001c0020000000540081805c0063
:1053f00002015d0083815d00e00f5200e08f5a00e2
:10540000e00f5b00e08f5b0007003d006044b800e8
:105410006055b8000c00a2000402540085825c00b4
:1054200006035d0087835d007c000700e00f5600e7
:10543000060032006022b8006033b800000052005d
:1054400081805a0002015b0083815b004f06780077
:105450004f05be004f04be0000000600889fbe003e
:105460008a9fbe008c9fbe000404be000605be00dd
:10547000809fbe00829fbe002f00070004067800b8
:105480000800be000a01be002b0007008406780059
:105490004f03be004f02be008d4f76007fb09700d5
:1054a00013003300f0ff2f008b8f6b0006003b00d2
:1054b0000d0666000c00a7000a00370007f0a600e2
:1054c000100020000a003700880f5200898f5a0010
:1054d0008a0f5b008b8f5b000300390010002000f7
:1054e00001003e000000200007f0a7000000ea00d5
:1054f0004f06be004f05be004f04be000000060070
:10550000e48240001078a3000700320064024000eb
:105510001178a3003400be001401be000400320064
:105520000330a700000006003500be001501be00d4
:105530000330a0000000060005ff2700058261007f
:10554000070032000428e1000100320024000500b9
:105550000600070001003a004400050004080500a9
:1055600002000700f9ff3a00140005006f82610095
:105570008102700085027100850272000000060041
:10558000800078005002be005003be004439de00a7
:10559000f700b200f37f2000030161000900320030
:1055a0000218e10016003a008501720083017300c1
:1055b000838173000008200015003a00400020009d
:1055c000130037008501720083017300838173002b
:1055d00005003a0004a8be0006a8be001000200086
:1055e0000b0037000201e9000402420085824a00f4
:1055f00006034b0087834b000748a300f9ff3200e6
:105600000740a00004a8be0006a8be00200020009d
:10561000800098009200980000000600889fbe005d
:105620008a9fbe008c9fbe000404b8000506b80027
:105630008904460060854e000606b8000a0546004b
:10564000e0854e000706b8008b054600040eb80042
:10565000890446000a854e00e0854d00050eb8001d
:105660000a0546008b854e00060eb8008b054600e5
:105670000416b8000a0546008b854e000516b800d2
:105680008b054600041eb8008b0546000800be00ce
:105690000a01be004f06be004f05be004f04be000b
:0456a0000000060000
:020000040000fa
:1056a4000800fa00000f78001107980022079800fc
:1056b400330798001e02780014da88001e02900056
:1056c40024da88002e02900034da88003e0290002a
:1056d40044da88000080fa00000006000200fa00a4
:1056e400004f78009e4278000582fb0004da8800af
:1056f4000080fa00000006000c00fa002007980061
:1057040031079800420798005307980001003700ba
:1057140000000000b6ef0200000000000002780064
:10572400e00f5200faff3a003e029000140798007e
:105734000f0037002e029000040f78000500370098
:105744009e0090001e0078003cef02000000000064
:105754001e0fe8004e0290000402e8009e0f520063
:10576400f7ff3c001e0290000402e80014079800b2
:105774005e0290008402e8001e029000848f5200b2
:10578400ecff3c0014002000040078000080fa00c4
:10579400000006001e00fa00300f9800410f980028
:1057a400520f9800630f98000100370000000000ba
:1057b400b6ef02000000000000027800e00f520083
:1057c400faff3a005e0a900034d288006e0a900014
:1057d40044d28800be0a90005e0a9000848f520072
:1057e4003e003a00ce0a90006e0a9000848f520068
:1057f400060034004e0a9000640798006e0a900078
:10580400440f98006e029000640f98000002eb00b1
:105814007407980014002000040f98004e0a9000aa
:1058240064079800260037007e0290000402e80016
:105834007407980014d28000fe029000848f5200f6
:1058440005003a000e0a90000400a200040f98001c
:105854000002eb00740798000e0a9000e00f52005b
:1058640014003200ee0090003e0890003cef02006d
:105874000000000044a4210014427800e04f5200cc
:105884000c0032003e0a90000402e800ee00900092
:10589400040078003cef0200000000003e0a900083
:1058a4000402e900ee009000040078003cef0200de
:1058b400000000006e0290000402e80064079800f3
:1058c4006e0a90008402e8006e029000848f5200f9
:1058d400d5ff3c0014002000ea003700ce0a9000f7
:1058e4006e0a9000848f52003e003a00be0a900077
:1058f4005e0a9000848f5200060034003e0a900035
:10590400640798005e0a9000340f98006e029000bd
:10591400540f98000002eb00740798001400200054
:10592400040f98003e0a9000640798002600370090
:105934007e0290000402e8007407980014d28000ec
:10594400fe029000848f520005003a000e0a900077
:105954000400a200040f98000002eb0074079800f2
:105964000e0a9000e00f520014003200ce0890009e
:105974006e0090003cef02000000000044a42100ef
:1059840014427800e04f52000c0032004e0a90009e
:105994000402e800840078006e0090003cef0200ee
:1059a400000000004e0a90000402e9008400780020
:1059b4006e0090003cef0200000000006e029000b8
:1059c4000402e800640798005e0a90008402e8007c
:1059d4006e029000848f5200d5ff3c00140020001a
:1059e400a80037000002eb0034079800de0a90009c
:1059f4003e0a9000048f52001e027800e00f52000d
:105a040005003d001e0fea003e0290000402e9007a
:105a140034079800030037003e0290000402e800b7
:105a2400340798000002eb0044079800ee0a900047
:105a34004e0a900004825200140798001e0290003f
:105a4400e00f520007003d001e0290000402ea002d
:105a5400140798004e0290000402e90044079800dd
:105a6400030037004e0290000402e8004407980047
:105a74000002eb00540798001e0290009e0278007a
:105a8400848f52001a003d005e0290000402e80078
:105a9400540798001e027800640798001e029000c4
:105aa400040f78006e029000140798003e0a9000dc
:105ab400640798004e0a9000340f98006e0290001c
